:020000040000FA
:06000000B1EF00F0120058
:02002A000000D4
:04002C002A0EF66E34
:10003000000EF76E000EF86E00010900F550656FB6
:100040000900F550666F03E1656701D03DD00900F6
:10005000F550606F0900F550616F0900F550626F4F
:1000600009000900F550E96E0900F550EA6E090033
:1000700009000900F550636F0900F550646F09002D
:100080000900F6CF67F0F7CF68F0F8CF69F060C0ED
:10009000F6FF61C0F7FF62C0F8FF0001635302E1A1
:1000A000645307E00900F550EE6E6307F8E2640759
:1000B000F9D767C0F6FF68C0F7FF69C0F8FF000115
:0A00C0006507000E665BBFD7120053
:0600CA00D9CFE6FFE1CFF3
:1000D000D9FFE6527D0EDF6E959E070ECA6EF90EB1
:1000E000CB6E7D0EBE6E4C0EBD6E020EDF26DF5057
:1000F000BE6E9E929EA2FED7DF50026E036AD8901B
:10010000035004E6FA0E025C000E0358EEE33F0EC5
:10011000E66EA1EC00F0E552020EDF5EDF50BE6E2F
:100120009E929EA2FED7DF500108F6E33F0EE66ED8
:10013000A1EC00F0E552D9D7E552E552E7CFD9FF5F
:020140001200AB
:0E014200FF0EE350046E480E01D04C0EE76E27
:10015000E72EFED7E76AE72EFED7042EF7D700007A
:0201600012008B
:0E01620014EE00F024EE00F0F86A019C16EC9A
:0E01700000F0C6EC00F065EC00F0FBD71200CA
:02017E0000EE91
:0C01800000F00F0EEE6AEA62FDD71200DC
:02018C0012005F
:020000040030CA
:0100010008F6
:0100020001FC
:010003001EDE
:010005008971
:010006008178
:010008000FE8
:01000900C036
:01000A000FE6
:01000B00E014
:01000C000FE4
:01000D0040B2
:00000001FF
