:020000040000FA
:0600000014EF01F01200F4
:0600080047EF00F01200BA
:060018005AEF00F0120097
:06002A0001005402000079
:080030006B000000010000005C
:080038000001010E6A6F956AD8
:100040009280F19E7C8093800BD813D8F19CF29221
:10005000F288D08EF28CF28E6AC08CFFFDD712002F
:10006000F294F194F28A010ED56ED76AD66AD58ED3
:1000700012007E6A7F6A7E80380EC06E010EC26EEC
:100080001200C282C2B2FED7C45000D01200DACF32
:10009000E4FFE2CFDAFFE652F2A208D0F2920001CA
:1000A0006B5103E1010E6B6F01D06B6BE552E5CF35
:1000B000DAFF1100D8CFE4FFE0CFE4FFE46EDACF3F
:1000C000E4FFE2CFDAFFE9CFE4FFEACFE4FFF6CFC7
:1000D000E4FFF7CFE4FFF5CFE4FFF3CFE4FFF4CF85
:1000E000E4FFFACFE4FF00EE00F0020EE80403E3C1
:1000F000EECFE4FFFBD700EE02F0000EE80403E3CE
:10010000EECFE4FFFBD7E652F2A416D0F294B9DFAB
:10011000D76ED66A00016B5108E100016A9F6A47F9
:100120006A5102E1010E6A6F07D000016A916A43C9
:100130006A5102E1800E6A6FE55200EE01F0000E96
:10014000E80403E3E5CFEDFFFBD700EE01F0020E7C
:10015000E80403E3E5CFEDFFFBD7E5CFFAFFE5CFFA
:10016000F4FFE5CFF3FFE5CFF5FFE5CFF7FFE5CFF0
:10017000F6FFE5CFEAFFE5CFE9FFE5CFDAFFE5508F
:0A018000E5CFE0FFE5CFD8FF100047
:06018A002A0EF66E000EC5
:10019000F76E000EF86E00010900F550656F09005A
:1001A000F550666F03E1656701D03DD00900F55059
:1001B000606F0900F550616F0900F550626F09002A
:1001C0000900F550E96E0900F550EA6E09000900D2
:1001D0000900F550636F0900F550646F09000900CC
:1001E000F6CF67F0F7CF68F0F8CF69F060C0F6FFA0
:1001F00061C0F7FF62C0F8FF0001635302E164537E
:1002000007E00900F550EE6E6307F8E26407F9D7DE
:1002100067C0F6FF68C0F7FF69C0F8FF0001650717
:08022000000E665BBFD712005F
:0802280014EE00F024EE00F0DA
:10023000F86A019CC5EC00F029EC01F01CEC00F020
:04024000FBD71200D6
:0C02440000EE00F00F0EEE6AEA62FDD73B
:0202500012009A
:02025200120098
:0102540000A9
:020000040030CA
:0100010008F6
:0100020001FC
:010003001EDE
:010005008B6F
:010006008178
:010008000FE8
:01000900C036
:01000A000FE6
:01000B00E014
:01000C000FE4
:01000D0040B2
:00000001FF
