:020000040000FA
:06000000C3EF01F0120045
:06000800EEEF00F0120013
:06002A000100B20300001A
:080030006A000000030000005B
:08003800956A9680F19E7C8020
:100040006C0EE66E000EE66E17D8E552E5520CD83F
:100050000FD800016A516A2B8C6E400EE66EB3EC2D
:1000600001F0E552F6D71200F19CF292F2881200EC
:10007000D09EF28CF28E1200D9CFE6FFE1CFD9FFED
:10008000FD0EDBCFE9FFFE0EDBCFEAFFEF50080AE3
:1000900001E193D00F0A01E181D0010A70E0030A67
:1000A0005FE0010A4EE0070A3DE0010A2CE0030A86
:1000B0001CE0010A0CE0100ED36E9B9CFD0EDBCF02
:1000C000E9FFFE0EDBCFEAFF010EEF6E83D0100ECC
:1000D000D36E9B9CFD0EDBCFE9FFFE0EDBCFEAFF6C
:1000E000010EEF6E00016B6F75D0200ED36E9B9CDE
:1000F000FD0EDBCFE9FFFE0EDBCFEAFF020EEF6E57
:1001000000016B6F67D0300ED36E9B9CFD0EDBCF72
:10011000E9FFFE0EDBCFEAFF030EEF6E0001040ED7
:100120006B6F58D0400ED36E9B9CFD0EDBCFE9FF6A
:10013000FE0EDBCFEAFF040EEF6E0001080E6B6FC0
:1001400049D0500ED36E9B9CFD0EDBCFE9FFFE0E17
:10015000DBCFEAFF050EEF6E0001100E6B6F3AD099
:10016000600ED36E9B9CFD0EDBCFE9FFFE0EDBCF56
:10017000EAFF060EEF6E0001200E6B6F2BD0700EA3
:10018000D36E9B9CFD0EDBCFE9FFFE0EDBCFEAFFBB
:10019000070EEF6E0001400E6B6F1CD0600ED36E29
:1001A0009B8CFD0EDBCFE9FFFE0EDBCFEAFF080ED6
:1001B000EF6E0001800E6B6F0DD0700ED36E9B8CB6
:1001C000FD0EDBCFE9FFFE0EDBCFEAFFEF6A000199
:1001D0006B6900D0E552E7CFD9FF1200DACFE4FF18
:1001E000E2CFDAFFE9CFE4FFEACFE4FFF6CFE4FFA6
:1001F000F7CFE4FFF5CFE4FFF3CFE4FFF4CFE4FF64
:10020000FACFE4FF00EE00F0020EE80403E3EECFC5
:10021000E4FFFBD700EE03F0000EE80403E3EECFAB
:10022000E4FFFBD7E652D9CFE6FFE1CFD9FF020EBC
:10023000E126F2A21CD07D0E00016B03F350DE6EAE
:10024000DD6AD9CFE9FFDACFEAFFEE50ED1005E025
:10025000DF06010E01E2DB06F4D7F29281B007D08F
:100260006C0EE66E000EE66E07DFE552E552020EFA
:10027000E15C02E2E16AE552E16EE552E7CFD9FFC7
:10028000E55200EE02F0000EE80403E3E5CFEDFFD7
:10029000FBD700EE01F0020EE80403E3E5CFEDFF2B
:1002A000FBD7E5CFFAFFE5CFF4FFE5CFF3FFE5CFCE
:1002B000F5FFE5CFF7FFE5CFF6FFE5CFEAFFE5CFA6
:0802C000E9FFE5CFDAFF1100B0
:0802C8002A0EF66E000EF76E1F
:1002D000000EF86E00010900F550656F0900F55039
:1002E000666F03E1656701D03DD00900F550606F8E
:1002F0000900F550616F0900F550626F09000900AF
:10030000F550E96E0900F550EA6E09000900090090
:10031000F550636F0900F550646F09000900F6CFCE
:1003200067F0F7CF68F0F8CF69F060C0F6FF61C002
:10033000F7FF62C0F8FF0001635302E1645307E076
:100340000900F550EE6E6307F8E26407F9D767C05D
:10035000F6FF68C0F7FF69C0F8FF00016507000EEF
:06036000665BBFD712002E
:0A036600FF0EE350026E480E01D0B6
:100370004C0EE76EE72EFED7E76AE72EFED7022E79
:06038000F7D70000120097
:0A03860014EE00F024EE00F0F86A17
:10039000019C64EC01F0D8EC01F01CEC00F0FBD700
:0203A000120049
:0E03A20000EE00F00F0EEE6AEA62FDD71200C8
:0203B000120039
:0303B20000010047
:020000040030CA
:0100010008F6
:0100020001FC
:010003001EDE
:010005008971
:010006008178
:010008000FE8
:01000900C036
:01000A000FE6
:01000B00E014
:01000C000FE4
:01000D0040B2
:00000001FF
