:020000040000FA
:0600000065EF00F01200A4
:02002A000000D4
:04002C002A0EF66E34
:10003000000EF76E000EF86E00010900F550656FB6
:100040000900F550666F03E1656701D03DD00900F6
:10005000F550606F0900F550616F0900F550626F4F
:1000600009000900F550E96E0900F550EA6E090033
:1000700009000900F550636F0900F550646F09002D
:100080000900F6CF67F0F7CF68F0F8CF69F060C0ED
:10009000F6FF61C0F7FF62C0F8FF0001635302E1A1
:1000A000645307E00900F550EE6E6307F8E2640759
:1000B000F9D767C0F6FF68C0F7FF69C0F8FF000115
:0A00C0006507000E665BBFD7120053
:0600CA0014EE00F024EE2C
:1000D00000F0F86A069C16EC00F07AEC00F040ECB8
:0600E00001F0FBD7120045
:0A00E60000EE00F00F0EEE6AEA6271
:0400F000FDD7120026
:0200F4001200F8
:1001000048656C6C6F21004D6963726F636869703C
:1001100000303132333435363738393031323334D8
:10012000353637383930313233343536373839307F
:10013000313233343536373839303132333435367D
:0E0140003738393031323334353637383900FC
:10028000D9CFE6FFE1CFD9FF240EE1263F0EF36E72
:10029000020EF3CFDBFF030EDB6A000EDE6E010EF3
:1002A000DD6E030EDBCFF3FFDB2AF350006E016A35
:1002B00000BE0168DE500024F66EDD500120F76EAE
:1002C0000800020EF5CFDBFFDB50EBE1070EE66E18
:1002D000010EE66E4ED8E552E552E76E020EE7CF0C
:1002E000DBFFE66A010EE66E62D8E552E552030EC8
:1002F000DB6ADBCF00F0200EE76E0018E8AE02D01C
:10030000E73402D0E750005C1BE2030EDB50410FE4
:10031000E66ED950040F006EDACF01F0030EDBCF8A
:1003200002F0036A02BE036800500224E96E015025
:100330000320EA6EE552E750EF6E030EDB2AD9D7B1
:10034000D950040FE66E000EDA20E66EE66A010E62
:10035000E66E57D8E552E552E552E552FFD7240E36
:10036000E15C02E2E16AE552E16EE552E7CFD9FFD6
:100370001200D9CFE6FFE1CFD9FF020EE126FD0E34
:10038000DBCFDEFFDBCFDDFFDECFF6FFDDCFF7FF1C
:100390000800F550006E020EE15C03E200D0E16A55
:1003A000E552E16E0050E552E7CFD9FF1200D9CFF8
:1003B000E6FFE1CFD9FF020EE126FD0EDBCF00F014
:1003C000FE0EDBCF01F0C00E0016FF0E011600C0BE
:1003D000DEFF01C0DDFFA68EA69CA688A684550E72
:1003E000A76EAA0EA76EA682A694006E020EE15C0E
:1003F00002E2E16AE552E16E0050E552E7CFD9FF33
:100400001200D9CFE6FFE1CFD9FF030EE126FD0EA2
:10041000DBCF00F0FE0EDBCF01F0E00E0016FF0E8A
:10042000011600C0DEFF01C0DDFF020EDB6ADBCF7C
:1004300000F0200EE76E0018E8AE02D0E73402D0DC
:10044000E750005C22E2020EDBCF03F0046A03BE39
:100450000468FB0EDB500324E96EFC0EDB50042025
:10046000EA6EEFCF02F0020EDBCF00F0016A00BEB1
:100470000168DE500024F66EDD500120F76E02C0E8
:10048000F5FF0C00020EDB2AD2D7A68EA69CA698FA
:10049000A684550EA76EAA0EA76EA682A694006E1D
:1004A000030EE15C02E2E16AE552E16E0050E552C2
:0604B000E7CFD9FF1200A6
:020000040030CA
:0100010008F6
:0100020001FC
:010003001EDE
:010005008971
:010006008178
:010008000FE8
:01000900C036
:01000A000FE6
:01000B00E014
:01000C000FE4
:01000D0040B2
:00000001FF
