:020000040000FA
:0600000075EF00F0120094
:02002A000000D4
:04002C002A0EF66E34
:10003000000EF76E000EF86E00010900F550656FB6
:100040000900F550666F03E1656701D03DD00900F6
:10005000F550606F0900F550616F0900F550626F4F
:1000600009000900F550E96E0900F550EA6E090033
:1000700009000900F550636F0900F550646F09002D
:100080000900F6CF67F0F7CF68F0F8CF69F060C0ED
:10009000F6FF61C0F7FF62C0F8FF0001635302E1A1
:1000A000645307E00900F550EE6E6307F8E2640759
:1000B000F9D767C0F6FF68C0F7FF69C0F8FF000115
:0A00C0006507000E665BBFD7120053
:0600CA00FF0EE350026E80
:1000D000480E01D04C0EE76EE72EFED7E76AE72EFA
:0A00E000FED7022EF7D70000120031
:0600EA0015EE00F025EE0A
:1000F00000F0F86A019C16EC00F094EC00F083EC40
:0601000000F0FBD7120025
:0A0106007F0E956E8C7E320EE66EC1
:0A01100065EC00F0E552F9D712008B
:06011A0000EE00F00F0EE4
:08012000EE6AEA62FDD712004D
:020128001200C3
:020000040030CA
:0100010008F6
:0100020007F6
:010003001EDE
:010005000BEF
:010006008178
:010008000FE8
:01000900C036
:01000A000FE6
:01000B00E014
:01000C000FE4
:01000D0040B2
:00000001FF
