:020000040000FA
:060000008EEF00F012007B
:02002A000000D4
:04002C002A0EF66E34
:10003000000EF76E000EF86E00010900F550656FB6
:100040000900F550666F03E1656701D03DD00900F6
:10005000F550606F0900F550616F0900F550626F4F
:1000600009000900F550E96E0900F550EA6E090033
:1000700009000900F550636F0900F550646F09002D
:100080000900F6CF67F0F7CF68F0F8CF69F060C0ED
:10009000F6FF61C0F7FF62C0F8FF0001635302E1A1
:1000A000645307E00900F550EE6E6307F8E2640759
:1000B000F9D767C0F6FF68C0F7FF69C0F8FF000115
:0A00C0006507000E665BBFD7120053
:0600CA0000016A6B956A5B
:1000D00000016A51F76A800FF66E010EF7220800E0
:1000E000F5508C6E6A2B080E6A5D01E16A6B320E68
:0C00F000E66E7EEC00F0E552EBD712004B
:0400FC00FF0EE350C0
:10010000026E480E01D04C0EE76EE72EFED7E76A6E
:0C011000E72EFED7022EF7D700001200E9
:04011C0014EE00F0ED
:1001200024EE00F0F86A019C16EC00F0A3EC00F05D
:0801300065EC00F0FBD71200A2
:0801380000EE00F00F0EEE6A6C
:06014000EA62FDD7120087
:020146001200A5
:08018000010204081020408078
:020000040030CA
:0100010008F6
:0100020007F6
:010003001EDE
:010005000BEF
:010006008178
:010008000FE8
:01000900C036
:01000A000FE6
:01000B00E014
:01000C000FE4
:01000D0040B2
:00000001FF
