:020000040000FA
:06000000AEEF00F012005B
:02002A000000D4
:04002C002A0EF66E34
:10003000000EF76E000EF86E00010900F550656FB6
:100040000900F550666F03E1656701D03DD00900F6
:10005000F550606F0900F550616F0900F550626F4F
:1000600009000900F550E96E0900F550EA6E090033
:1000700009000900F550636F0900F550646F09002D
:100080000900F6CF67F0F7CF68F0F8CF69F060C0ED
:10009000F6FF61C0F7FF62C0F8FF0001635302E1A1
:1000A000645307E00900F550EE6E6307F8E2640759
:1000B000F9D767C0F6FF68C0F7FF69C0F8FF000115
:0A00C0006507000E665BBFD7120053
:0600CA00D9CFE6FFE1CFF3
:1000D000D9FF020EE126DF6A010EDB6A00016A6FBA
:1000E000956AF19E7C807F6A9380F294080ED56EAB
:1000F000D76AD66AD58EDF5007E100016A9F6A474A
:100100006A5102E1010E6A6FDF0407E100016A91A2
:100110006A436A5102E1800E6A6F6AC08CFF81A057
:1001200003D0010EDB6A0CD0010EDB5009E1DE5278
:10013000010EDD6EDF5003E1010EDF6E01D0DF6ADC
:10014000F2A4EDD7F294D7D7020EE15C02E2E16AA5
:0C015000E552E16EE552E7CFD9FF120046
:04015C0014EE00F0AD
:1001600024EE00F0F86A019C16EC00F0C3EC00F0FD
:0801700065EC00F0FBD7120062
:0801780000EE00F00F0EEE6A2C
:06018000EA62FDD7120047
:02018600120065
:020000040030CA
:0100010008F6
:0100020001FC
:010003001EDE
:010005008B6F
:010006008178
:010008000FE8
:01000900C036
:01000A000FE6
:01000B00E014
:01000C000FE4
:01000D0040B2
:00000001FF
