:020000040000FA
:06000000C1EF00F0120048
:02002A000000D4
:04002C00D9CFE6FF43
:10003000E1CFD9FF020EE126DF6A010EDB68956A87
:100040009680F19E7C80010EDB508C6E010EDBCF22
:10005000E6FFDFCFE6FF1DD8E552E552DFCFE6FF32
:1000600031D8E552F36E010EDB50F35C01E006D0AF
:10007000DF2A010EDB06DB500008E5E3FFD7020EA6
:10008000E15C02E2E16AE552E16EE552E7CFD9FFB9
:100090001200D9CFE6FFE1CFD9FFA69EA69CFD0EA8
:1000A000DB50A86EFE0EDB50A96EA684550EA76E1F
:1000B000AA0EA76EA682A6B2FED7A694E552E7CFF7
:1000C000D9FF1200D9CFE6FFE1CFD9FFA69EA69CAB
:1000D000FE0EDB50A96EA680A85000D0E552E7CFF7
:0400E000D9FF120032
:0C00E4002A0EF66E000EF76E000EF86E8D
:1000F00000010900F550656F0900F550666F03E1D6
:10010000656701D03DD00900F550606F0900F550DA
:10011000616F0900F550626F09000900F550E96E42
:100120000900F550EA6E090009000900F550636FF7
:100130000900F550646F09000900F6CF67F0F7CFAA
:1001400068F0F8CF69F060C0F6FF61C0F7FF62C0E9
:10015000F8FF0001635302E1645307E00900F55022
:10016000EE6E6307F8E26407F9D767C0F6FF68C070
:10017000F7FF69C0F8FF00016507000E665BBFD797
:0201800012006B
:0E01820014EE00F024EE00F0F86A019C72EC1E
:0E01900000F0D6EC00F016EC00F0FBD71200E9
:02019E0000EE71
:0C01A00000F00F0EEE6AEA62FDD71200BC
:0201AC0012003F
:020000040030CA
:0100010008F6
:0100020001FC
:010003001EDE
:010005008971
:010006008178
:010008000FE8
:01000900C036
:01000A000FE6
:01000B00E014
:01000C000FE4
:01000D0040B2
:00000001FF
